{
  "contractName": "MyContract",
  "abi": [
    {
      "inputs": [
        {
          "name": "_aggregator",
          "type": "address"
        }
      ],
      "payable": false,
      "stateMutability": "nonpayable",
      "type": "constructor"
    },
    {
      "anonymous": false,
      "inputs": [
        {
          "indexed": true,
          "name": "current",
          "type": "int256"
        },
        {
          "indexed": true,
          "name": "roundId",
          "type": "uint256"
        },
        {
          "indexed": false,
          "name": "timestamp",
          "type": "uint256"
        }
      ],
      "name": "AnswerUpdated",
      "type": "event"
    },
    {
      "constant": true,
      "inputs": [],
      "name": "getLatestAnswer",
      "outputs": [
        {
          "name": "",
          "type": "int256"
        }
      ],
      "payable": false,
      "stateMutability": "view",
      "type": "function"
    },
    {
      "constant": true,
      "inputs": [],
      "name": "getLatestTimestamp",
      "outputs": [
        {
          "name": "",
          "type": "uint256"
        }
      ],
      "payable": false,
      "stateMutability": "view",
      "type": "function"
    },
    {
      "constant": true,
      "inputs": [
        {
          "name": "_back",
          "type": "uint256"
        }
      ],
      "name": "getPreviousAnswer",
      "outputs": [
        {
          "name": "",
          "type": "int256"
        }
      ],
      "payable": false,
      "stateMutability": "view",
      "type": "function"
    },
    {
      "constant": true,
      "inputs": [
        {
          "name": "_back",
          "type": "uint256"
        }
      ],
      "name": "getPreviousTimestamp",
      "outputs": [
        {
          "name": "",
          "type": "uint256"
        }
      ],
      "payable": false,
      "stateMutability": "view",
      "type": "function"
    },
    {
      "constant": false,
      "inputs": [
        {
          "name": "_amount",
          "type": "uint256"
        }
      ],
      "name": "CeoFunding",
      "outputs": [],
      "payable": true,
      "stateMutability": "payable",
      "type": "function"
    },
    {
      "constant": true,
      "inputs": [],
      "name": "BalanceOfContract",
      "outputs": [
        {
          "name": "",
          "type": "uint256"
        }
      ],
      "payable": false,
      "stateMutability": "view",
      "type": "function"
    },
    {
      "constant": true,
      "inputs": [],
      "name": "BalanceCeoCanWithdraw",
      "outputs": [
        {
          "name": "",
          "type": "uint256"
        }
      ],
      "payable": false,
      "stateMutability": "view",
      "type": "function"
    },
    {
      "constant": true,
      "inputs": [
        {
          "name": "index",
          "type": "uint256"
        }
      ],
      "name": "getDetailBetOfPlayer",
      "outputs": [
        {
          "components": [
            {
              "name": "amount",
              "type": "uint256"
            },
            {
              "name": "timeStart",
              "type": "uint256"
            },
            {
              "name": "lastPrice",
              "type": "int256"
            },
            {
              "name": "choice",
              "type": "uint8"
            },
            {
              "name": "status",
              "type": "uint8"
            },
            {
              "name": "isWin",
              "type": "int8"
            }
          ],
          "name": "",
          "type": "tuple"
        }
      ],
      "payable": false,
      "stateMutability": "view",
      "type": "function"
    },
    {
      "constant": true,
      "inputs": [],
      "name": "getBetLengh",
      "outputs": [
        {
          "name": "",
          "type": "uint256"
        }
      ],
      "payable": false,
      "stateMutability": "view",
      "type": "function"
    },
    {
      "constant": true,
      "inputs": [],
      "name": "getAllBetOfPlayer",
      "outputs": [
        {
          "components": [
            {
              "name": "amount",
              "type": "uint256"
            },
            {
              "name": "timeStart",
              "type": "uint256"
            },
            {
              "name": "lastPrice",
              "type": "int256"
            },
            {
              "name": "choice",
              "type": "uint8"
            },
            {
              "name": "status",
              "type": "uint8"
            },
            {
              "name": "isWin",
              "type": "int8"
            }
          ],
          "name": "",
          "type": "tuple[]"
        }
      ],
      "payable": false,
      "stateMutability": "view",
      "type": "function"
    },
    {
      "constant": false,
      "inputs": [
        {
          "name": "_amount",
          "type": "uint256"
        }
      ],
      "name": "CeoWithdraw",
      "outputs": [],
      "payable": false,
      "stateMutability": "nonpayable",
      "type": "function"
    },
    {
      "constant": false,
      "inputs": [
        {
          "name": "_choice",
          "type": "uint8"
        },
        {
          "name": "_amount",
          "type": "uint256"
        }
      ],
      "name": "betting",
      "outputs": [],
      "payable": true,
      "stateMutability": "payable",
      "type": "function"
    },
    {
      "constant": false,
      "inputs": [
        {
          "name": "_index",
          "type": "uint256"
        }
      ],
      "name": "claim",
      "outputs": [],
      "payable": false,
      "stateMutability": "nonpayable",
      "type": "function"
    }
  ],
  "bytecode": "0x608060405260006002553480156200001657600080fd5b5060405160208062002ffb8339810180604052620000389190810190620000d6565b806000806101000a81548173ffffffffffffffffffffffffffffffffffffffff021916908373ffffffffffffffffffffffffffffffffffffffff16021790555033600160006101000a81548173ffffffffffffffffffffffffffffffffffffffff021916908373ffffffffffffffffffffffffffffffffffffffff1602179055505062000136565b6000620000ce825162000122565b905092915050565b600060208284031215620000e957600080fd5b6000620000f984828501620000c0565b91505092915050565b600073ffffffffffffffffffffffffffffffffffffffff82169050919050565b60006200012f8262000102565b9050919050565b612eb580620001466000396000f3fe6080604052600436106100c5576000357c0100000000000000000000000000000000000000000000000000000000900463ffffffff16806303892125146100ca57806322bfa48614610107578063379607f5146101325780634f3953021461015b57806365ccad53146101865780637f64a311146101af578063802fbcb4146101cb57806387adc2c1146101f657806396237c0214610233578063a99aef641461025e578063b1dc6a5614610289578063d8d7e950146102a5578063f43b52cb146102e2575b600080fd5b3480156100d657600080fd5b506100f160048036036100ec91908101906127ac565b61030d565b6040516100fe9190612dec565b60405180910390f35b34801561011357600080fd5b5061011c6104e2565b6040516101299190612dec565b60405180910390f35b34801561013e57600080fd5b50610159600480360361015491908101906127ac565b61052c565b005b34801561016757600080fd5b50610170611b73565b60405161017d9190612dec565b60405180910390f35b34801561019257600080fd5b506101ad60048036036101a891908101906127ac565b611c28565b005b6101c960048036036101c491908101906127ac565b611d64565b005b3480156101d757600080fd5b506101e0611e3e565b6040516101ed9190612dec565b60405180910390f35b34801561020257600080fd5b5061021d600480360361021891908101906127ac565b611e5d565b60405161022a9190612dd1565b60405180910390f35b34801561023f57600080fd5b50610248611f47565b6040516102559190612c96565b60405180910390f35b34801561026a57600080fd5b50610273612009565b6040516102809190612c74565b60405180910390f35b6102a3600480360361029e91908101906127fe565b61211b565b005b3480156102b157600080fd5b506102cc60048036036102c791908101906127ac565b61245d565b6040516102d99190612c96565b60405180910390f35b3480156102ee57600080fd5b506102f7612632565b6040516103049190612dec565b60405180910390f35b6000806000809054906101000a900473ffffffffffffffffffffffffffffffffffffffff1673ffffffffffffffffffffffffffffffffffffffff1663668a0f026040518163ffffffff167c010000000000000000000000000000000000000000000000000000000002815260040160206040518083038186803b15801561039357600080fd5b505afa1580156103a7573d6000803e3d6000fd5b505050506040513d601f19601f820116820180604052506103cb91908101906127d5565b9050808311151515610412576040517f08c379a000000000000000000000000000000000000000000000000000000000815260040161040990612d11565b60405180910390fd5b6000809054906101000a900473ffffffffffffffffffffffffffffffffffffffff1673ffffffffffffffffffffffffffffffffffffffff1663b633620c8483036040518263ffffffff167c010000000000000000000000000000000000000000000000000000000002815260040161048a9190612dec565b60206040518083038186803b1580156104a257600080fd5b505afa1580156104b6573d6000803e3d6000fd5b505050506040513d601f19601f820116820180604052506104da91908101906127d5565b915050919050565b6000600360003373ffffffffffffffffffffffffffffffffffffffff1673ffffffffffffffffffffffffffffffffffffffff16815260200190815260200160002080549050905090565b610e10600360003373ffffffffffffffffffffffffffffffffffffffff1673ffffffffffffffffffffffffffffffffffffffff1681526020019081526020016000208281548110151561057b57fe5b9060005260206000209060040201600101540142101515156105d2576040517f08c379a00000000000000000000000000000000000000000000000000000000081526004016105c990612d91565b60405180910390fd5b6000600360003373ffffffffffffffffffffffffffffffffffffffff1673ffffffffffffffffffffffffffffffffffffffff1681526020019081526020016000208281548110151561062057fe5b906000526020600020906004020160030160019054906101000a900460ff1660ff16141515610684576040517f08c379a000000000000000000000000000000000000000000000000000000000815260040161067b90612cf1565b60405180910390fd5b60008060009054906101000a900473ffffffffffffffffffffffffffffffffffffffff1673ffffffffffffffffffffffffffffffffffffffff1663668a0f026040518163ffffffff167c010000000000000000000000000000000000000000000000000000000002815260040160206040518083038186803b15801561070957600080fd5b505afa15801561071d573d6000803e3d6000fd5b505050506040513d601f19601f8201168201806040525061074191908101906127d5565b9050610e10600360003373ffffffffffffffffffffffffffffffffffffffff1673ffffffffffffffffffffffffffffffffffffffff1681526020019081526020016000208381548110151561079257fe5b906000526020600020906004020160010154016000809054906101000a900473ffffffffffffffffffffffffffffffffffffffff1673ffffffffffffffffffffffffffffffffffffffff16638205bf6a6040518163ffffffff167c010000000000000000000000000000000000000000000000000000000002815260040160206040518083038186803b15801561082857600080fd5b505afa15801561083c573d6000803e3d6000fd5b505050506040513d601f19601f8201168201806040525061086091908101906127d5565b111515611094576000809054906101000a900473ffffffffffffffffffffffffffffffffffffffff1673ffffffffffffffffffffffffffffffffffffffff166350d25bcd6040518163ffffffff167c010000000000000000000000000000000000000000000000000000000002815260040160206040518083038186803b1580156108ea57600080fd5b505afa1580156108fe573d6000803e3d6000fd5b505050506040513d601f19601f820116820180604052506109229190810190612783565b600360003373ffffffffffffffffffffffffffffffffffffffff1673ffffffffffffffffffffffffffffffffffffffff1681526020019081526020016000208381548110151561096e57fe5b9060005260206000209060040201600201541280156109fa57506000600360003373ffffffffffffffffffffffffffffffffffffffff1673ffffffffffffffffffffffffffffffffffffffff168152602001908152602001600020838154811015156109d657fe5b906000526020600020906004020160030160009054906101000a900460ff1660ff16145b80610b9457506000809054906101000a900473ffffffffffffffffffffffffffffffffffffffff1673ffffffffffffffffffffffffffffffffffffffff166350d25bcd6040518163ffffffff167c010000000000000000000000000000000000000000000000000000000002815260040160206040518083038186803b158015610a8357600080fd5b505afa158015610a97573d6000803e3d6000fd5b505050506040513d601f19601f82011682018060405250610abb9190810190612783565b600360003373ffffffffffffffffffffffffffffffffffffffff1673ffffffffffffffffffffffffffffffffffffffff16815260200190815260200160002083815481101515610b0757fe5b906000526020600020906004020160020154148015610b9357506001600360003373ffffffffffffffffffffffffffffffffffffffff1673ffffffffffffffffffffffffffffffffffffffff16815260200190815260200160002083815481101515610b6f57fe5b906000526020600020906004020160030160009054906101000a900460ff1660ff16145b5b80610d2e57506000809054906101000a900473ffffffffffffffffffffffffffffffffffffffff1673ffffffffffffffffffffffffffffffffffffffff166350d25bcd6040518163ffffffff167c010000000000000000000000000000000000000000000000000000000002815260040160206040518083038186803b158015610c1d57600080fd5b505afa158015610c31573d6000803e3d6000fd5b505050506040513d601f19601f82011682018060405250610c559190810190612783565b600360003373ffffffffffffffffffffffffffffffffffffffff1673ffffffffffffffffffffffffffffffffffffffff16815260200190815260200160002083815481101515610ca157fe5b906000526020600020906004020160020154138015610d2d57506002600360003373ffffffffffffffffffffffffffffffffffffffff1673ffffffffffffffffffffffffffffffffffffffff16815260200190815260200160002083815481101515610d0957fe5b906000526020600020906004020160030160009054906101000a900460ff1660ff16145b5b15610ec3576001600360003373ffffffffffffffffffffffffffffffffffffffff1673ffffffffffffffffffffffffffffffffffffffff16815260200190815260200160002083815481101515610d8157fe5b906000526020600020906004020160030160026101000a81548160ff021916908360000b60ff1602179055503373ffffffffffffffffffffffffffffffffffffffff166108fc600a600360003373ffffffffffffffffffffffffffffffffffffffff1673ffffffffffffffffffffffffffffffffffffffff16815260200190815260200160002085815481101515610e1557fe5b906000526020600020906004020160000154811515610e3057fe5b0460038060003373ffffffffffffffffffffffffffffffffffffffff1673ffffffffffffffffffffffffffffffffffffffff16815260200190815260200160002086815481101515610e7e57fe5b90600052602060002090600402016000015402039081150290604051600060405180830381858888f19350505050158015610ebd573d6000803e3d6000fd5b50610f3e565b6000600360003373ffffffffffffffffffffffffffffffffffffffff1673ffffffffffffffffffffffffffffffffffffffff16815260200190815260200160002083815481101515610f1157fe5b906000526020600020906004020160030160026101000a81548160ff021916908360000b60ff1602179055505b6001600360003373ffffffffffffffffffffffffffffffffffffffff1673ffffffffffffffffffffffffffffffffffffffff16815260200190815260200160002083815481101515610f8c57fe5b906000526020600020906004020160030160016101000a81548160ff021916908360ff160217905550600a600360003373ffffffffffffffffffffffffffffffffffffffff1673ffffffffffffffffffffffffffffffffffffffff1681526020019081526020016000208381548110151561100357fe5b90600052602060002090600402016000015481151561101e57fe5b0460038060003373ffffffffffffffffffffffffffffffffffffffff1673ffffffffffffffffffffffffffffffffffffffff1681526020019081526020016000208481548110151561106c57fe5b9060005260206000209060040201600001540203600260008282540392505081905550611b6f565b6000600190505b603c81111515611b6d57610e10600360003373ffffffffffffffffffffffffffffffffffffffff1673ffffffffffffffffffffffffffffffffffffffff168152602001908152602001600020848154811015156110f457fe5b906000526020600020906004020160010154016000809054906101000a900473ffffffffffffffffffffffffffffffffffffffff1673ffffffffffffffffffffffffffffffffffffffff1663b633620c8385036040518263ffffffff167c010000000000000000000000000000000000000000000000000000000002815260040161117f9190612dec565b60206040518083038186803b15801561119757600080fd5b505afa1580156111ab573d6000803e3d6000fd5b505050506040513d601f19601f820116820180604052506111cf91908101906127d5565b1115801561130757506000809054906101000a900473ffffffffffffffffffffffffffffffffffffffff1673ffffffffffffffffffffffffffffffffffffffff1663b633620c6001838503016040518263ffffffff167c01000000000000000000000000000000000000000000000000000000000281526004016112539190612dec565b60206040518083038186803b15801561126b57600080fd5b505afa15801561127f573d6000803e3d6000fd5b505050506040513d601f19601f820116820180604052506112a391908101906127d5565b610e10600360003373ffffffffffffffffffffffffffffffffffffffff1673ffffffffffffffffffffffffffffffffffffffff168152602001908152602001600020858154811015156112f257fe5b90600052602060002090600402016001015401105b15611b60576000809054906101000a900473ffffffffffffffffffffffffffffffffffffffff1673ffffffffffffffffffffffffffffffffffffffff1663b5ab58dc8284036040518263ffffffff167c01000000000000000000000000000000000000000000000000000000000281526004016113849190612dec565b60206040518083038186803b15801561139c57600080fd5b505afa1580156113b0573d6000803e3d6000fd5b505050506040513d601f19601f820116820180604052506113d49190810190612783565b600360003373ffffffffffffffffffffffffffffffffffffffff1673ffffffffffffffffffffffffffffffffffffffff1681526020019081526020016000208481548110151561142057fe5b9060005260206000209060040201600201541280156114ac57506000600360003373ffffffffffffffffffffffffffffffffffffffff1673ffffffffffffffffffffffffffffffffffffffff1681526020019081526020016000208481548110151561148857fe5b906000526020600020906004020160030160009054906101000a900460ff1660ff16145b8061165357506000809054906101000a900473ffffffffffffffffffffffffffffffffffffffff1673ffffffffffffffffffffffffffffffffffffffff1663b5ab58dc8284036040518263ffffffff167c010000000000000000000000000000000000000000000000000000000002815260040161152a9190612dec565b60206040518083038186803b15801561154257600080fd5b505afa158015611556573d6000803e3d6000fd5b505050506040513d601f19601f8201168201806040525061157a9190810190612783565b600360003373ffffffffffffffffffffffffffffffffffffffff1673ffffffffffffffffffffffffffffffffffffffff168152602001908152602001600020848154811015156115c657fe5b90600052602060002090600402016002015414801561165257506001600360003373ffffffffffffffffffffffffffffffffffffffff1673ffffffffffffffffffffffffffffffffffffffff1681526020019081526020016000208481548110151561162e57fe5b906000526020600020906004020160030160009054906101000a900460ff1660ff16145b5b806117fa57506000809054906101000a900473ffffffffffffffffffffffffffffffffffffffff1673ffffffffffffffffffffffffffffffffffffffff1663b5ab58dc8284036040518263ffffffff167c01000000000000000000000000000000000000000000000000000000000281526004016116d19190612dec565b60206040518083038186803b1580156116e957600080fd5b505afa1580156116fd573d6000803e3d6000fd5b505050506040513d601f19601f820116820180604052506117219190810190612783565b600360003373ffffffffffffffffffffffffffffffffffffffff1673ffffffffffffffffffffffffffffffffffffffff1681526020019081526020016000208481548110151561176d57fe5b9060005260206000209060040201600201541380156117f957506002600360003373ffffffffffffffffffffffffffffffffffffffff1673ffffffffffffffffffffffffffffffffffffffff168152602001908152602001600020848154811015156117d557fe5b906000526020600020906004020160030160009054906101000a900460ff1660ff16145b5b1561198f576001600360003373ffffffffffffffffffffffffffffffffffffffff1673ffffffffffffffffffffffffffffffffffffffff1681526020019081526020016000208481548110151561184d57fe5b906000526020600020906004020160030160026101000a81548160ff021916908360000b60ff1602179055503373ffffffffffffffffffffffffffffffffffffffff166108fc600a600360003373ffffffffffffffffffffffffffffffffffffffff1673ffffffffffffffffffffffffffffffffffffffff168152602001908152602001600020868154811015156118e157fe5b9060005260206000209060040201600001548115156118fc57fe5b0460038060003373ffffffffffffffffffffffffffffffffffffffff1673ffffffffffffffffffffffffffffffffffffffff1681526020019081526020016000208781548110151561194a57fe5b90600052602060002090600402016000015402039081150290604051600060405180830381858888f19350505050158015611989573d6000803e3d6000fd5b50611a0a565b6000600360003373ffffffffffffffffffffffffffffffffffffffff1673ffffffffffffffffffffffffffffffffffffffff168152602001908152602001600020848154811015156119dd57fe5b906000526020600020906004020160030160026101000a81548160ff021916908360000b60ff1602179055505b6001600360003373ffffffffffffffffffffffffffffffffffffffff1673ffffffffffffffffffffffffffffffffffffffff16815260200190815260200160002084815481101515611a5857fe5b906000526020600020906004020160030160016101000a81548160ff021916908360ff160217905550600a600360003373ffffffffffffffffffffffffffffffffffffffff1673ffffffffffffffffffffffffffffffffffffffff16815260200190815260200160002084815481101515611acf57fe5b906000526020600020906004020160000154811515611aea57fe5b0460038060003373ffffffffffffffffffffffffffffffffffffffff1673ffffffffffffffffffffffffffffffffffffffff16815260200190815260200160002085815481101515611b3857fe5b9060005260206000209060040201600001540203600260008282540392505081905550611b6d565b808060010191505061109b565b505b5050565b6000600160009054906101000a900473ffffffffffffffffffffffffffffffffffffffff1673ffffffffffffffffffffffffffffffffffffffff163373ffffffffffffffffffffffffffffffffffffffff16141515611c07576040517f08c379a0000000000000000000000000000000000000000000000000000000008152600401611bfe90612cd1565b60405180910390fd5b6002543073ffffffffffffffffffffffffffffffffffffffff163103905090565b600160009054906101000a900473ffffffffffffffffffffffffffffffffffffffff1673ffffffffffffffffffffffffffffffffffffffff163373ffffffffffffffffffffffffffffffffffffffff16141515611cba576040517f08c379a0000000000000000000000000000000000000000000000000000000008152600401611cb190612cd1565b60405180910390fd5b6002543073ffffffffffffffffffffffffffffffffffffffff1631038111151515611d1a576040517f08c379a0000000000000000000000000000000000000000000000000000000008152600401611d1190612d51565b60405180910390fd5b3373ffffffffffffffffffffffffffffffffffffffff166108fc829081150290604051600060405180830381858888f19350505050158015611d60573d6000803e3d6000fd5b5050565b600160009054906101000a900473ffffffffffffffffffffffffffffffffffffffff1673ffffffffffffffffffffffffffffffffffffffff163373ffffffffffffffffffffffffffffffffffffffff16141515611df6576040517f08c379a0000000000000000000000000000000000000000000000000000000008152600401611ded90612cd1565b60405180910390fd5b803410151515611e3b576040517f08c379a0000000000000000000000000000000000000000000000000000000008152600401611e3290612db1565b60405180910390fd5b50565b60003073ffffffffffffffffffffffffffffffffffffffff1631905090565b611e656126f4565b600360003373ffffffffffffffffffffffffffffffffffffffff1673ffffffffffffffffffffffffffffffffffffffff16815260200190815260200160002082815481101515611eb157fe5b906000526020600020906004020160c060405190810160405290816000820154815260200160018201548152602001600282015481526020016003820160009054906101000a900460ff1660ff1660ff1681526020016003820160019054906101000a900460ff1660ff1660ff1681526020016003820160029054906101000a900460000b60000b60000b815250509050919050565b60008060009054906101000a900473ffffffffffffffffffffffffffffffffffffffff1673ffffffffffffffffffffffffffffffffffffffff166350d25bcd6040518163ffffffff167c010000000000000000000000000000000000000000000000000000000002815260040160206040518083038186803b158015611fcc57600080fd5b505afa158015611fe0573d6000803e3d6000fd5b505050506040513d601f19601f820116820180604052506120049190810190612783565b905090565b6060600360003373ffffffffffffffffffffffffffffffffffffffff1673ffffffffffffffffffffffffffffffffffffffff168152602001908152602001600020805480602002602001604051908101604052809291908181526020016000905b82821015612112578382906000526020600020906004020160c060405190810160405290816000820154815260200160018201548152602001600282015481526020016003820160009054906101000a900460ff1660ff1660ff1681526020016003820160019054906101000a900460ff1660ff1660ff1681526020016003820160029054906101000a900460000b60000b60000b815250508152602001906001019061206a565b50505050905090565b803410151515612160576040517f08c379a000000000000000000000000000000000000000000000000000000000815260040161215790612cb1565b60405180910390fd5b600a8181151561216c57fe5b0460038202036002543073ffffffffffffffffffffffffffffffffffffffff163103101515156121d1576040517f08c379a00000000000000000000000000000000000000000000000000000000081526004016121c890612d71565b60405180910390fd5b60008260ff1614806121e6575060018260ff16145b806121f4575060028260ff16145b1515612235576040517f08c379a000000000000000000000000000000000000000000000000000000000815260040161222c90612d31565b60405180910390fd5b600360003373ffffffffffffffffffffffffffffffffffffffff1673ffffffffffffffffffffffffffffffffffffffff16815260200190815260200160002060c0604051908101604052808381526020014281526020016000809054906101000a900473ffffffffffffffffffffffffffffffffffffffff1673ffffffffffffffffffffffffffffffffffffffff166350d25bcd6040518163ffffffff167c010000000000000000000000000000000000000000000000000000000002815260040160206040518083038186803b15801561230f57600080fd5b505afa158015612323573d6000803e3d6000fd5b505050506040513d601f19601f820116820180604052506123479190810190612783565b81526020018460ff168152602001600060ff1681526020017fffffffffffffffffffffffffffffffffffffffffffffffffffffffffffffffff60000b8152509080600181540180825580915050906001820390600052602060002090600402016000909192909190915060008201518160000155602082015181600101556040820151816002015560608201518160030160006101000a81548160ff021916908360ff16021790555060808201518160030160016101000a81548160ff021916908360ff16021790555060a08201518160030160026101000a81548160ff021916908360000b60ff160217905550505050600a8181151561244457fe5b0460038202036002600082825401925050819055505050565b6000806000809054906101000a900473ffffffffffffffffffffffffffffffffffffffff1673ffffffffffffffffffffffffffffffffffffffff1663668a0f026040518163ffffffff167c010000000000000000000000000000000000000000000000000000000002815260040160206040518083038186803b1580156124e357600080fd5b505afa1580156124f7573d6000803e3d6000fd5b505050506040513d601f19601f8201168201806040525061251b91908101906127d5565b9050808311151515612562576040517f08c379a000000000000000000000000000000000000000000000000000000000815260040161255990612d11565b60405180910390fd5b6000809054906101000a900473ffffffffffffffffffffffffffffffffffffffff1673ffffffffffffffffffffffffffffffffffffffff1663b5ab58dc8483036040518263ffffffff167c01000000000000000000000000000000000000000000000000000000000281526004016125da9190612dec565b60206040518083038186803b1580156125f257600080fd5b505afa158015612606573d6000803e3d6000fd5b505050506040513d601f19601f8201168201806040525061262a9190810190612783565b915050919050565b60008060009054906101000a900473ffffffffffffffffffffffffffffffffffffffff1673ffffffffffffffffffffffffffffffffffffffff16638205bf6a6040518163ffffffff167c010000000000000000000000000000000000000000000000000000000002815260040160206040518083038186803b1580156126b757600080fd5b505afa1580156126cb573d6000803e3d6000fd5b505050506040513d601f19601f820116820180604052506126ef91908101906127d5565b905090565b60c060405190810160405280600081526020016000815260200160008152602001600060ff168152602001600060ff1681526020016000800b81525090565b600061273f8251612e5a565b905092915050565b60006127538235612e64565b905092915050565b60006127678251612e64565b905092915050565b600061277b8235612e6e565b905092915050565b60006020828403121561279557600080fd5b60006127a384828501612733565b91505092915050565b6000602082840312156127be57600080fd5b60006127cc84828501612747565b91505092915050565b6000602082840312156127e757600080fd5b60006127f58482850161275b565b91505092915050565b6000806040838503121561281157600080fd5b600061281f8582860161276f565b925050602061283085828601612747565b9150509250929050565b600061284582612e14565b80845260208401935061285783612e07565b60005b828110156128895761286d868351612bdb565b61287682612e1f565b915060c08601955060018101905061285a565b50849250505092915050565b61289e81612e2c565b82525050565b6128ad81612e36565b82525050565b6000601182527f496e707574206e6f7420656e6f7567682e0000000000000000000000000000006020830152604082019050919050565b6000603f82527f556e617574686f72697a65642e204f6e6c7920636f6e74726163742773206f7760208301527f6e65722063616e20706572666f726d2074686973206f7065726174696f6e2e006040830152606082019050919050565b6000601a82527f42657420686164206265656e20646f6e6520616c72656164792e0000000000006020830152604082019050919050565b6000601382527f4e6f7420656e6f75676820686973746f72792e000000000000000000000000006020830152604082019050919050565b6000601f82527f5573657227732063686f696365206d75737420626520696e2072616e67652e006020830152604082019050919050565b6000603d82527f43616e206e6f7420776974686472617720616e20616d6f756e74206f66206d6f60208301527f6e6579207468617420657863656564732066726f7a656e2066756e642e0000006040830152606082019050919050565b6000604182527f436f6e747261637420646f6573206e6f74206861766520656e6f756768206d6f60208301527f6e657920746f20656e7375726520726577617264206f6620796f75722062657460408301527f2e000000000000000000000000000000000000000000000000000000000000006060830152608082019050919050565b6000602982527f4d75737420636c61696d206174206c65617374203120686f757220616674657260208301527f2062657474696e672e00000000000000000000000000000000000000000000006040830152606082019050919050565b6000601482527f496e707574206973206e6f7420656e6f7567682e0000000000000000000000006020830152604082019050919050565b60c082016000820151612b766000850182612c56565b506020820151612b896020850182612c56565b506040820151612b9c6040850182612895565b506060820151612baf6060850182612c65565b506080820151612bc26080850182612c65565b5060a0820151612bd560a08501826128a4565b50505050565b60c082016000820151612bf16000850182612c56565b506020820151612c046020850182612c56565b506040820151612c176040850182612895565b506060820151612c2a6060850182612c65565b506080820151612c3d6080850182612c65565b5060a0820151612c5060a08501826128a4565b50505050565b612c5f81612e43565b82525050565b612c6e81612e4d565b82525050565b60006020820190508181036000830152612c8e818461283a565b905092915050565b6000602082019050612cab6000830184612895565b92915050565b60006020820190508181036000830152612cca816128b3565b9050919050565b60006020820190508181036000830152612cea816128ea565b9050919050565b60006020820190508181036000830152612d0a81612947565b9050919050565b60006020820190508181036000830152612d2a8161297e565b9050919050565b60006020820190508181036000830152612d4a816129b5565b9050919050565b60006020820190508181036000830152612d6a816129ec565b9050919050565b60006020820190508181036000830152612d8a81612a49565b9050919050565b60006020820190508181036000830152612daa81612acc565b9050919050565b60006020820190508181036000830152612dca81612b29565b9050919050565b600060c082019050612de66000830184612b60565b92915050565b6000602082019050612e016000830184612c56565b92915050565b6000602082019050919050565b600081519050919050565b6000602082019050919050565b6000819050919050565b60008160000b9050919050565b6000819050919050565b600060ff82169050919050565b6000819050919050565b6000819050919050565b600060ff8216905091905056fea265627a7a72305820fad111e87295cec8580c59a89f2a9af99b7e78ef3799a81db7a8c842f039e5116c6578706572696d656e74616cf50037",
  "source": "pragma solidity ^0.5.0;\npragma experimental ABIEncoderV2;\n\nimport \"@chainlink/contracts/src/v0.5/interfaces/AggregatorInterface.sol\";\n\ncontract MyContract {\n    AggregatorInterface internal ref;\n\n    struct Bet {\n        uint256 amount;\n        uint256 timeStart;\n        int256 lastPrice;\n        uint8 choice; // 0 < // 1 == // 2 >\n        uint8 status; // 0 = pending // 1 = done\n        int8 isWin; //-1 = pending // 0 = lost // 1 = win\n    }\n\n    address Owner; // address of owner\n\n    uint256 private rewardAmount = 0; // frozen ethereum\n\n    mapping(address => Bet[]) private users; //\n\n    constructor(address _aggregator) public {\n        ref = AggregatorInterface(_aggregator);\n        Owner = msg.sender;\n    }\n\n    event AnswerUpdated(\n        int256 indexed current,\n        uint256 indexed roundId,\n        uint256 timestamp\n    );\n\n    modifier isOwner() {\n        require(\n            msg.sender == Owner,\n            \"Unauthorized. Only contract's owner can perform this operation.\"\n        );\n        _;\n    }\n\n    function getLatestAnswer() public view returns (int256) {\n        return ref.latestAnswer();\n    }\n\n    function getLatestTimestamp() public view returns (uint256) {\n        return ref.latestTimestamp();\n    }\n\n    function getPreviousAnswer(uint256 _back) public view returns (int256) {\n        uint256 latest = ref.latestRound();\n        require(_back <= latest, \"Not enough history.\");\n        return ref.getAnswer(latest - _back);\n    }\n\n    function getPreviousTimestamp(uint256 _back) public view returns (uint256) {\n        uint256 latest = ref.latestRound();\n        require(_back <= latest, \"Not enough history.\");\n        return ref.getTimestamp(latest - _back);\n    }\n\n    function CeoFunding(uint256 _amount) public payable isOwner {\n        require(msg.value >= _amount, \"Input is not enough.\");\n    }\n\n    function BalanceOfContract() public view returns (uint256) {\n        return address(this).balance;\n    }\n\n    function BalanceCeoCanWithdraw() public view isOwner returns (uint256) {\n        return address(this).balance - rewardAmount;\n    }\n\n    function getDetailBetOfPlayer(uint256 index)\n        public\n        view\n        returns (Bet memory)\n    {\n        return users[msg.sender][index];\n    }\n\n    function getBetLengh() public view returns (uint256) {\n        return users[msg.sender].length;\n    }\n\n    function getAllBetOfPlayer() public view returns (Bet[] memory) {\n        return users[msg.sender];\n    }\n\n    function CeoWithdraw(uint256 _amount) external {\n        require(\n            msg.sender == Owner,\n            \"Unauthorized. Only contract's owner can perform this operation.\"\n        );\n        require(\n            _amount <= address(this).balance - rewardAmount,\n            \"Can not withdraw an amount of money that exceeds frozen fund.\"\n        );\n        msg.sender.transfer(_amount);\n    }\n\n    function betting(uint8 _choice, uint256 _amount) external payable {\n        require(msg.value >= _amount, \"Input not enough.\");\n        require(\n            (address(this).balance - rewardAmount) >=\n                (_amount * 3 - _amount / 10),\n            \"Contract does not have enough money to ensure reward of your bet.\"\n        );\n\n        // _choice = 0 mean < going up\n        // _choice = 1 mean = unchanged\n        // _choice = 2 mean > going down\n        require(\n            _choice == 0 || _choice == 1 || _choice == 2,\n            \"User's choice must be in range.\"\n        );\n\n        // push user request to BET\n        users[msg.sender].push(\n            Bet(_amount, now, ref.latestAnswer(), _choice, 0, -1)\n        );\n\n        rewardAmount += (_amount * 3 - _amount / 10);\n    }\n\n    function claim(uint256 _index) public {\n        require(\n            now >= users[msg.sender][_index].timeStart + 3600,\n            \"Must claim at least 1 hour after betting.\"\n        );\n        require(\n            users[msg.sender][_index].status == 0,\n            \"Bet had been done already.\"\n        );\n\n        uint256 latest = ref.latestRound();\n\n        if (\n            (ref.latestTimestamp() <=\n                users[msg.sender][_index].timeStart + 3600)\n        ) {\n            // win\n            if (\n                ((users[msg.sender][_index].lastPrice < ref.latestAnswer()) &&\n                    users[msg.sender][_index].choice == 0) ||\n                ((users[msg.sender][_index].lastPrice == ref.latestAnswer()) &&\n                    users[msg.sender][_index].choice == 1) ||\n                ((users[msg.sender][_index].lastPrice > ref.latestAnswer()) &&\n                    users[msg.sender][_index].choice == 2)\n            ) {\n                users[msg.sender][_index].isWin = 1;\n                // transfer reward\n                msg.sender.transfer(\n                    users[msg.sender][_index].amount *\n                        3 -\n                        users[msg.sender][_index].amount /\n                        10\n                );\n            } else {\n                users[msg.sender][_index].isWin = 0;\n            }\n            // lose just update status done\n            users[msg.sender][_index].status = 1;\n\n            // unlock frozen amount\n            rewardAmount -= (users[msg.sender][_index].amount *\n                3 -\n                users[msg.sender][_index].amount /\n                10);\n        } else {\n            // loop 60 time ~ 60 hours\n            for (uint256 i = 1; i <= 60; i++) {\n                if (\n                    (ref.getTimestamp(latest - i) <=\n                        users[msg.sender][_index].timeStart + 3600) &&\n                    (users[msg.sender][_index].timeStart + 3600) <\n                    (ref.getTimestamp(latest - i + 1))\n                ) {\n                    // win\n                    if (\n                        ((users[msg.sender][_index].lastPrice <\n                            ref.getAnswer(latest - i)) &&\n                            users[msg.sender][_index].choice == 0) ||\n                        ((users[msg.sender][_index].lastPrice ==\n                            ref.getAnswer(latest - i)) &&\n                            users[msg.sender][_index].choice == 1) ||\n                        ((users[msg.sender][_index].lastPrice >\n                            ref.getAnswer(latest - i)) &&\n                            users[msg.sender][_index].choice == 2)\n                    ) {\n                        users[msg.sender][_index].isWin = 1;\n                        // transfer reward\n                        msg.sender.transfer(\n                            users[msg.sender][_index].amount *\n                                3 -\n                                users[msg.sender][_index].amount /\n                                10\n                        );\n                    } else {\n                        users[msg.sender][_index].isWin = 0;\n                    }\n                    // lose just update status done\n                    users[msg.sender][_index].status = 1;\n\n                    // unlock frozen amount\n                    rewardAmount -= (users[msg.sender][_index].amount *\n                        3 -\n                        users[msg.sender][_index].amount /\n                        10);\n                    break;\n                }\n            }\n        }\n    }\n}\n",
  "sourcePath": "/home/long/Projects/Crypto_Supreme_Prophecy/contract/contracts/MyContract.sol",
  "compiler": {
    "name": "solc",
    "version": "0.5.0+commit.1d4f565a.Emscripten.clang"
  },
  "schemaVersion": "3.2.3",
  "updatedAt": "2020-07-28T08:41:25.592Z",
  "networkType": "ethereum",
  "devdoc": {
    "methods": {}
  },
  "userdoc": {
    "methods": {}
  }
}